{
  "contractName": "PaperStorage",
  "abi": [
    {
      "constant": false,
      "inputs": [],
      "name": "renounceOwnership",
      "outputs": [],
      "payable": false,
      "stateMutability": "nonpayable",
      "type": "function",
      "signature": "0x715018a6"
    },
    {
      "constant": true,
      "inputs": [],
      "name": "owner",
      "outputs": [
        {
          "name": "",
          "type": "address"
        }
      ],
      "payable": false,
      "stateMutability": "view",
      "type": "function",
      "signature": "0x8da5cb5b"
    },
    {
      "constant": true,
      "inputs": [],
      "name": "isOwner",
      "outputs": [
        {
          "name": "",
          "type": "bool"
        }
      ],
      "payable": false,
      "stateMutability": "view",
      "type": "function",
      "signature": "0x8f32d59b"
    },
    {
      "constant": false,
      "inputs": [
        {
          "name": "newOwner",
          "type": "address"
        }
      ],
      "name": "transferOwnership",
      "outputs": [],
      "payable": false,
      "stateMutability": "nonpayable",
      "type": "function",
      "signature": "0xf2fde38b"
    },
    {
      "anonymous": false,
      "inputs": [
        {
          "indexed": true,
          "name": "_authors",
          "type": "string"
        },
        {
          "indexed": true,
          "name": "_title",
          "type": "string"
        }
      ],
      "name": "PaperStored",
      "type": "event",
      "signature": "0x25e62903523bb2d8b5ac0a57d502eacf7ffdec19a7a0dd0ce796fcacbfef54a2"
    },
    {
      "anonymous": false,
      "inputs": [
        {
          "indexed": true,
          "name": "previousOwner",
          "type": "address"
        },
        {
          "indexed": true,
          "name": "newOwner",
          "type": "address"
        }
      ],
      "name": "OwnershipTransferred",
      "type": "event",
      "signature": "0x8be0079c531659141344cd1fd0a4f28419497f9722a3daafe3b4186f6b6457e0"
    },
    {
      "constant": false,
      "inputs": [
        {
          "name": "_paperContent",
          "type": "bytes32"
        },
        {
          "name": "_issue",
          "type": "string"
        },
        {
          "name": "_authors",
          "type": "string"
        },
        {
          "name": "_title",
          "type": "string"
        }
      ],
      "name": "storePaper",
      "outputs": [],
      "payable": false,
      "stateMutability": "nonpayable",
      "type": "function",
      "signature": "0xd58cc50f"
    },
    {
      "constant": true,
      "inputs": [
        {
          "name": "_idPaper",
          "type": "uint256"
        }
      ],
      "name": "getPaperById",
      "outputs": [
        {
          "name": "issue",
          "type": "string"
        },
        {
          "name": "authors",
          "type": "string"
        },
        {
          "name": "title",
          "type": "string"
        },
        {
          "name": "content",
          "type": "bytes32"
        }
      ],
      "payable": false,
      "stateMutability": "view",
      "type": "function",
      "signature": "0x3e0b7810"
    },
    {
      "constant": true,
      "inputs": [
        {
          "name": "_content",
          "type": "bytes32"
        }
      ],
      "name": "getPaperByContent",
      "outputs": [
        {
          "name": "issue",
          "type": "string"
        },
        {
          "name": "authors",
          "type": "string"
        },
        {
          "name": "title",
          "type": "string"
        }
      ],
      "payable": false,
      "stateMutability": "view",
      "type": "function",
      "signature": "0x73e4b65b"
    },
    {
      "constant": true,
      "inputs": [],
      "name": "papersCount",
      "outputs": [
        {
          "name": "",
          "type": "uint256"
        }
      ],
      "payable": false,
      "stateMutability": "view",
      "type": "function",
      "signature": "0x916cec76"
    },
    {
      "constant": true,
      "inputs": [],
      "name": "getLastID",
      "outputs": [
        {
          "name": "",
          "type": "uint256"
        }
      ],
      "payable": false,
      "stateMutability": "view",
      "type": "function",
      "signature": "0x12ba91ea"
    }
  ],
  "bytecode": "0x6080604052336000806101000a81548173ffffffffffffffffffffffffffffffffffffffff021916908373ffffffffffffffffffffffffffffffffffffffff1602179055506000809054906101000a900473ffffffffffffffffffffffffffffffffffffffff1673ffffffffffffffffffffffffffffffffffffffff16600073ffffffffffffffffffffffffffffffffffffffff167f8be0079c531659141344cd1fd0a4f28419497f9722a3daafe3b4186f6b6457e060405160405180910390a3611262806100cf6000396000f3fe608060405260043610610099576000357c0100000000000000000000000000000000000000000000000000000000900463ffffffff16806312ba91ea1461009e5780633e0b7810146100c9578063715018a61461025c57806373e4b65b146102735780638da5cb5b146103ff5780638f32d59b14610456578063916cec7614610485578063d58cc50f146104b0578063f2fde38b146106b0575b600080fd5b3480156100aa57600080fd5b506100b3610701565b6040518082815260200191505060405180910390f35b3480156100d557600080fd5b50610102600480360360208110156100ec57600080fd5b81019080803590602001909291905050506107bd565b60405180806020018060200180602001858152602001848103845288818151815260200191508051906020019080838360005b83811015610150578082015181840152602081019050610135565b50505050905090810190601f16801561017d5780820380516001836020036101000a031916815260200191505b50848103835287818151815260200191508051906020019080838360005b838110156101b657808201518184015260208101905061019b565b50505050905090810190601f1680156101e35780820380516001836020036101000a031916815260200191505b50848103825286818151815260200191508051906020019080838360005b8381101561021c578082015181840152602081019050610201565b50505050905090810190601f1680156102495780820380516001836020036101000a031916815260200191505b5097505050505050505060405180910390f35b34801561026857600080fd5b50610271610a27565b005b34801561027f57600080fd5b506102ac6004803603602081101561029657600080fd5b8101908080359060200190929190505050610af9565b60405180806020018060200180602001848103845287818151815260200191508051906020019080838360005b838110156102f45780820151818401526020810190506102d9565b50505050905090810190601f1680156103215780820380516001836020036101000a031916815260200191505b50848103835286818151815260200191508051906020019080838360005b8381101561035a57808201518184015260208101905061033f565b50505050905090810190601f1680156103875780820380516001836020036101000a031916815260200191505b50848103825285818151815260200191508051906020019080838360005b838110156103c05780820151818401526020810190506103a5565b50505050905090810190601f1680156103ed5780820380516001836020036101000a031916815260200191505b50965050505050505060405180910390f35b34801561040b57600080fd5b50610414610d45565b604051808273ffffffffffffffffffffffffffffffffffffffff1673ffffffffffffffffffffffffffffffffffffffff16815260200191505060405180910390f35b34801561046257600080fd5b5061046b610d6e565b604051808215151515815260200191505060405180910390f35b34801561049157600080fd5b5061049a610dc5565b6040518082815260200191505060405180910390f35b3480156104bc57600080fd5b506106ae600480360360808110156104d357600080fd5b8101908080359060200190929190803590602001906401000000008111156104fa57600080fd5b82018360208201111561050c57600080fd5b8035906020019184600183028401116401000000008311171561052e57600080fd5b91908080601f016020809104026020016040519081016040528093929190818152602001838380828437600081840152601f19601f8201169050808301925050505050505091929192908035906020019064010000000081111561059157600080fd5b8201836020820111156105a357600080fd5b803590602001918460018302840111640100000000831117156105c557600080fd5b91908080601f016020809104026020016040519081016040528093929190818152602001838380828437600081840152601f19601f8201169050808301925050505050505091929192908035906020019064010000000081111561062857600080fd5b82018360208201111561063a57600080fd5b8035906020019184600183028401116401000000008311171561065c57600080fd5b91908080601f016020809104026020016040519081016040528093929190818152602001838380828437600081840152601f19601f820116905080830192505050505050509192919290505050610dd2565b005b3480156106bc57600080fd5b506106ff600480360360208110156106d357600080fd5b81019080803573ffffffffffffffffffffffffffffffffffffffff16906020019092919050505061104d565b005b6000803073ffffffffffffffffffffffffffffffffffffffff1663916cec766040518163ffffffff167c010000000000000000000000000000000000000000000000000000000002815260040160206040518083038186803b15801561076657600080fd5b505afa15801561077a573d6000803e3d6000fd5b505050506040513d602081101561079057600080fd5b8101908080519060200190929190505050905060008111156107b6578080600190039150505b8091505090565b606080606060006002858154811015156107d357fe5b906000526020600020015490506107e8611166565b60016000838152602001908152602001600020608060405190810160405290816000820160009054906101000a900460ff16151515158152602001600182018054600181600116156101000203166002900480601f0160208091040260200160405190810160405280929190818152602001828054600181600116156101000203166002900480156108bb5780601f10610890576101008083540402835291602001916108bb565b820191906000526020600020905b81548152906001019060200180831161089e57829003601f168201915b50505050508152602001600282018054600181600116156101000203166002900480601f01602080910402602001604051908101604052809291908181526020018280546001816001161561010002031660029004801561095d5780601f106109325761010080835404028352916020019161095d565b820191906000526020600020905b81548152906001019060200180831161094057829003601f168201915b50505050508152602001600382018054600181600116156101000203166002900480601f0160208091040260200160405190810160405280929190818152602001828054600181600116156101000203166002900480156109ff5780601f106109d4576101008083540402835291602001916109ff565b820191906000526020600020905b8154815290600101906020018083116109e257829003601f168201915b5050505050815250509050806040015193508060600151925080602001519450509193509193565b610a2f610d6e565b1515610a3a57600080fd5b600073ffffffffffffffffffffffffffffffffffffffff166000809054906101000a900473ffffffffffffffffffffffffffffffffffffffff1673ffffffffffffffffffffffffffffffffffffffff167f8be0079c531659141344cd1fd0a4f28419497f9722a3daafe3b4186f6b6457e060405160405180910390a360008060006101000a81548173ffffffffffffffffffffffffffffffffffffffff021916908373ffffffffffffffffffffffffffffffffffffffff160217905550565b6060806060610b06611166565b60016000868152602001908152602001600020608060405190810160405290816000820160009054906101000a900460ff16151515158152602001600182018054600181600116156101000203166002900480601f016020809104026020016040519081016040528092919081815260200182805460018160011615610100020316600290048015610bd95780601f10610bae57610100808354040283529160200191610bd9565b820191906000526020600020905b815481529060010190602001808311610bbc57829003601f168201915b50505050508152602001600282018054600181600116156101000203166002900480601f016020809104026020016040519081016040528092919081815260200182805460018160011615610100020316600290048015610c7b5780601f10610c5057610100808354040283529160200191610c7b565b820191906000526020600020905b815481529060010190602001808311610c5e57829003601f168201915b50505050508152602001600382018054600181600116156101000203166002900480601f016020809104026020016040519081016040528092919081815260200182805460018160011615610100020316600290048015610d1d5780601f10610cf257610100808354040283529160200191610d1d565b820191906000526020600020905b815481529060010190602001808311610d0057829003601f168201915b5050505050815250509050806020015193508060400151925080606001519150509193909250565b60008060009054906101000a900473ffffffffffffffffffffffffffffffffffffffff16905090565b60008060009054906101000a900473ffffffffffffffffffffffffffffffffffffffff1673ffffffffffffffffffffffffffffffffffffffff163373ffffffffffffffffffffffffffffffffffffffff1614905090565b6000600280549050905090565b6001600085815260200190815260200160002060000160009054906101000a900460ff16151515610e6b576040517f08c379a000000000000000000000000000000000000000000000000000000000815260040180806020018281038252601d8152602001807f5468697320706170657220697320616c7265616479206c6f646164656400000081525060200191505060405180910390fd5b610e73611166565b6080604051908101604052806001151581526020018581526020018481526020018381525090506002859080600181540180825580915050906001820390600052602060002001600090919290919091505550806001600087815260200190815260200160002060008201518160000160006101000a81548160ff0219169083151502179055506020820151816001019080519060200190610f16929190611191565b506040820151816002019080519060200190610f33929190611191565b506060820151816003019080519060200190610f50929190611191565b50905050816040518082805190602001908083835b602083101515610f8a5780518252602082019150602081019050602083039250610f65565b6001836020036101000a0380198251168184511680821785525050505050509050019150506040518091039020836040518082805190602001908083835b602083101515610fed5780518252602082019150602081019050602083039250610fc8565b6001836020036101000a03801982511681845116808217855250505050505090500191505060405180910390207f25e62903523bb2d8b5ac0a57d502eacf7ffdec19a7a0dd0ce796fcacbfef54a260405160405180910390a35050505050565b611055610d6e565b151561106057600080fd5b6110698161106c565b50565b600073ffffffffffffffffffffffffffffffffffffffff168173ffffffffffffffffffffffffffffffffffffffff16141515156110a857600080fd5b8073ffffffffffffffffffffffffffffffffffffffff166000809054906101000a900473ffffffffffffffffffffffffffffffffffffffff1673ffffffffffffffffffffffffffffffffffffffff167f8be0079c531659141344cd1fd0a4f28419497f9722a3daafe3b4186f6b6457e060405160405180910390a3806000806101000a81548173ffffffffffffffffffffffffffffffffffffffff021916908373ffffffffffffffffffffffffffffffffffffffff16021790555050565b6080604051908101604052806000151581526020016060815260200160608152602001606081525090565b828054600181600116156101000203166002900490600052602060002090601f016020900481019282601f106111d257805160ff1916838001178555611200565b82800160010185558215611200579182015b828111156111ff5782518255916020019190600101906111e4565b5b50905061120d9190611211565b5090565b61123391905b8082111561122f576000816000905550600101611217565b5090565b9056fea165627a7a72305820d9c6de80dc306f7403d65cac1b573a60b20baf2c800834c4cbdc495b88628e8d0029",
  "source": "pragma solidity >=0.4.21 <0.6.0;\n\nimport \"./Ownable.sol\";\n\ncontract PaperStorage is Ownable{\n    \n    struct infoPaper{\n        bool exists;\n        string issue;\n        string authors;\n        string title; \n    }\n    \n    mapping(bytes32 => infoPaper) paperByContent;\n    //The paper ID will be the position of its content in the below array. \n    bytes32[] contentList;\n\n    event PaperStored(string indexed _authors, string indexed _title);\n\n    function storePaper(bytes32 _paperContent, string memory _issue, string memory _authors, string memory _title) public { \n        require(!paperByContent[_paperContent].exists, \"This paper is already lodaded\");\n        infoPaper memory newPaper = infoPaper(true, _issue, _authors, _title);\n        contentList.push(_paperContent);\n        paperByContent[_paperContent] = newPaper;\n        emit PaperStored(_authors, _title);\n    } \n\n    function getPaperById(uint _idPaper) public view returns(\n        string memory issue,\n        string memory authors,\n        string memory title, \n        bytes32 content\n    ){\n        content = contentList[_idPaper];\n        infoPaper memory paper = paperByContent[content]; \n        authors = paper.authors;\n        title = paper.title; \n        issue = paper.issue;\n    }\n\n    function getPaperByContent(bytes32 _content) public view returns(\n        string memory issue,\n        string memory authors,\n        string memory title\n    ){\n        infoPaper memory paper = paperByContent[_content]; \n        issue = paper.issue;\n        authors = paper.authors;\n        title = paper.title;\n    }\n\n    function papersCount() public view returns (uint){\n        return contentList.length;\n    }\n\n    function getLastID() public view returns(uint){\n        uint count = this.papersCount();\n        if(count > 0) count--;\n        return count;\n    }\n\n}\n",
  "sourcePath": "/home/santi/Documents/Voolkia/Blockchain/Contract/contracts/PaperStorage.sol",
  "compiler": {
    "name": "solc",
    "version": "0.5.0+commit.1d4f565a.Emscripten.clang"
  },
  "schemaVersion": "3.0.1",
  "updatedAt": "2019-04-23T17:36:42.301Z",
  "devdoc": {
    "methods": {
      "isOwner()": {
        "return": "true if `msg.sender` is the owner of the contract."
      },
      "owner()": {
        "return": "the address of the owner."
      },
      "renounceOwnership()": {
        "details": "Allows the current owner to relinquish control of the contract."
      },
      "transferOwnership(address)": {
        "details": "Allows the current owner to transfer control of the contract to a newOwner.",
        "params": {
          "newOwner": "The address to transfer ownership to."
        }
      }
    }
  },
  "userdoc": {
    "methods": {
      "renounceOwnership()": {
        "notice": "Renouncing to ownership will leave the contract without an owner. It will not be possible to call the functions with the `onlyOwner` modifier anymore."
      }
    }
  }
}