{
  "contractName": "PaperManagement",
  "abi": [
    {
      "constant": true,
      "inputs": [
        {
          "name": "_username",
          "type": "string"
        },
        {
          "name": "_password",
          "type": "string"
        }
      ],
      "name": "checkUserData",
      "outputs": [
        {
          "name": "",
          "type": "bool"
        }
      ],
      "payable": false,
      "stateMutability": "view",
      "type": "function",
      "signature": "0x31b022d0"
    },
    {
      "constant": false,
      "inputs": [
        {
          "name": "_username",
          "type": "string"
        },
        {
          "name": "_name",
          "type": "string"
        },
        {
          "name": "_lastName",
          "type": "string"
        },
        {
          "name": "_email",
          "type": "string"
        },
        {
          "name": "_password",
          "type": "string"
        }
      ],
      "name": "createUser",
      "outputs": [],
      "payable": false,
      "stateMutability": "nonpayable",
      "type": "function",
      "signature": "0x65c06f70"
    },
    {
      "constant": false,
      "inputs": [],
      "name": "renounceOwnership",
      "outputs": [],
      "payable": false,
      "stateMutability": "nonpayable",
      "type": "function",
      "signature": "0x715018a6"
    },
    {
      "constant": true,
      "inputs": [],
      "name": "owner",
      "outputs": [
        {
          "name": "",
          "type": "address"
        }
      ],
      "payable": false,
      "stateMutability": "view",
      "type": "function",
      "signature": "0x8da5cb5b"
    },
    {
      "constant": true,
      "inputs": [],
      "name": "isOwner",
      "outputs": [
        {
          "name": "",
          "type": "bool"
        }
      ],
      "payable": false,
      "stateMutability": "view",
      "type": "function",
      "signature": "0x8f32d59b"
    },
    {
      "constant": false,
      "inputs": [
        {
          "name": "newOwner",
          "type": "address"
        }
      ],
      "name": "transferOwnership",
      "outputs": [],
      "payable": false,
      "stateMutability": "nonpayable",
      "type": "function",
      "signature": "0xf2fde38b"
    },
    {
      "anonymous": false,
      "inputs": [
        {
          "indexed": true,
          "name": "_authors",
          "type": "string"
        },
        {
          "indexed": true,
          "name": "_title",
          "type": "string"
        }
      ],
      "name": "PaperStored",
      "type": "event",
      "signature": "0x25e62903523bb2d8b5ac0a57d502eacf7ffdec19a7a0dd0ce796fcacbfef54a2"
    },
    {
      "anonymous": false,
      "inputs": [
        {
          "indexed": true,
          "name": "previousOwner",
          "type": "address"
        },
        {
          "indexed": true,
          "name": "newOwner",
          "type": "address"
        }
      ],
      "name": "OwnershipTransferred",
      "type": "event",
      "signature": "0x8be0079c531659141344cd1fd0a4f28419497f9722a3daafe3b4186f6b6457e0"
    },
    {
      "constant": false,
      "inputs": [
        {
          "name": "_paperContent",
          "type": "bytes32"
        },
        {
          "name": "_issue",
          "type": "string"
        },
        {
          "name": "_authors",
          "type": "string"
        },
        {
          "name": "_title",
          "type": "string"
        },
        {
          "name": "_username",
          "type": "string"
        }
      ],
      "name": "storePaper",
      "outputs": [],
      "payable": false,
      "stateMutability": "nonpayable",
      "type": "function",
      "signature": "0xb2887996"
    },
    {
      "constant": true,
      "inputs": [
        {
          "name": "_idPaper",
          "type": "uint256"
        }
      ],
      "name": "getPaperById",
      "outputs": [
        {
          "name": "issue",
          "type": "string"
        },
        {
          "name": "authors",
          "type": "string"
        },
        {
          "name": "title",
          "type": "string"
        },
        {
          "name": "username",
          "type": "string"
        },
        {
          "name": "content",
          "type": "bytes32"
        }
      ],
      "payable": false,
      "stateMutability": "view",
      "type": "function",
      "signature": "0x3e0b7810"
    },
    {
      "constant": true,
      "inputs": [
        {
          "name": "_content",
          "type": "bytes32"
        }
      ],
      "name": "getPaperByContent",
      "outputs": [
        {
          "name": "issue",
          "type": "string"
        },
        {
          "name": "authors",
          "type": "string"
        },
        {
          "name": "title",
          "type": "string"
        },
        {
          "name": "username",
          "type": "string"
        }
      ],
      "payable": false,
      "stateMutability": "view",
      "type": "function",
      "signature": "0x73e4b65b"
    },
    {
      "constant": true,
      "inputs": [],
      "name": "papersCount",
      "outputs": [
        {
          "name": "",
          "type": "uint256"
        }
      ],
      "payable": false,
      "stateMutability": "view",
      "type": "function",
      "signature": "0x916cec76"
    },
    {
      "constant": true,
      "inputs": [],
      "name": "getLastID",
      "outputs": [
        {
          "name": "",
          "type": "uint256"
        }
      ],
      "payable": false,
      "stateMutability": "view",
      "type": "function",
      "signature": "0x12ba91ea"
    }
  ],
  "bytecode": "0x6080604052336000806101000a81548173ffffffffffffffffffffffffffffffffffffffff021916908373ffffffffffffffffffffffffffffffffffffffff1602179055506000809054906101000a900473ffffffffffffffffffffffffffffffffffffffff1673ffffffffffffffffffffffffffffffffffffffff16600073ffffffffffffffffffffffffffffffffffffffff167f8be0079c531659141344cd1fd0a4f28419497f9722a3daafe3b4186f6b6457e060405160405180910390a3611ee4806100cf6000396000f3fe6080604052600436106100af576000357c0100000000000000000000000000000000000000000000000000000000900463ffffffff16806312ba91ea146100b457806331b022d0146100df5780633e0b78101461025657806365c06f7014610455578063715018a61461077957806373e4b65b146107905780638da5cb5b146109885780638f32d59b146109df578063916cec7614610a0e578063b288799614610a39578063f2fde38b14610cd0575b600080fd5b3480156100c057600080fd5b506100c9610d21565b6040518082815260200191505060405180910390f35b3480156100eb57600080fd5b5061023c6004803603604081101561010257600080fd5b810190808035906020019064010000000081111561011f57600080fd5b82018360208201111561013157600080fd5b8035906020019184600183028401116401000000008311171561015357600080fd5b91908080601f016020809104026020016040519081016040528093929190818152602001838380828437600081840152601f19601f820116905080830192505050505050509192919290803590602001906401000000008111156101b657600080fd5b8201836020820111156101c857600080fd5b803590602001918460018302840111640100000000831117156101ea57600080fd5b91908080601f016020809104026020016040519081016040528093929190818152602001838380828437600081840152601f19601f820116905080830192505050505050509192919290505050610ddd565b604051808215151515815260200191505060405180910390f35b34801561026257600080fd5b5061028f6004803603602081101561027957600080fd5b8101908080359060200190929190505050610f43565b604051808060200180602001806020018060200186815260200185810385528a818151815260200191508051906020019080838360005b838110156102e15780820151818401526020810190506102c6565b50505050905090810190601f16801561030e5780820380516001836020036101000a031916815260200191505b50858103845289818151815260200191508051906020019080838360005b8381101561034757808201518184015260208101905061032c565b50505050905090810190601f1680156103745780820380516001836020036101000a031916815260200191505b50858103835288818151815260200191508051906020019080838360005b838110156103ad578082015181840152602081019050610392565b50505050905090810190601f1680156103da5780820380516001836020036101000a031916815260200191505b50858103825287818151815260200191508051906020019080838360005b838110156104135780820151818401526020810190506103f8565b50505050905090810190601f1680156104405780820380516001836020036101000a031916815260200191505b50995050505050505050505060405180910390f35b34801561046157600080fd5b50610777600480360360a081101561047857600080fd5b810190808035906020019064010000000081111561049557600080fd5b8201836020820111156104a757600080fd5b803590602001918460018302840111640100000000831117156104c957600080fd5b91908080601f016020809104026020016040519081016040528093929190818152602001838380828437600081840152601f19601f8201169050808301925050505050505091929192908035906020019064010000000081111561052c57600080fd5b82018360208201111561053e57600080fd5b8035906020019184600183028401116401000000008311171561056057600080fd5b91908080601f016020809104026020016040519081016040528093929190818152602001838380828437600081840152601f19601f820116905080830192505050505050509192919290803590602001906401000000008111156105c357600080fd5b8201836020820111156105d557600080fd5b803590602001918460018302840111640100000000831117156105f757600080fd5b91908080601f016020809104026020016040519081016040528093929190818152602001838380828437600081840152601f19601f8201169050808301925050505050505091929192908035906020019064010000000081111561065a57600080fd5b82018360208201111561066c57600080fd5b8035906020019184600183028401116401000000008311171561068e57600080fd5b91908080601f016020809104026020016040519081016040528093929190818152602001838380828437600081840152601f19601f820116905080830192505050505050509192919290803590602001906401000000008111156106f157600080fd5b82018360208201111561070357600080fd5b8035906020019184600183028401116401000000008311171561072557600080fd5b91908080601f016020809104026020016040519081016040528093929190818152602001838380828437600081840152601f19601f820116905080830192505050505050509192919290505050611259565b005b34801561078557600080fd5b5061078e61149d565b005b34801561079c57600080fd5b506107c9600480360360208110156107b357600080fd5b810190808035906020019092919050505061156f565b6040518080602001806020018060200180602001858103855289818151815260200191508051906020019080838360005b838110156108155780820151818401526020810190506107fa565b50505050905090810190601f1680156108425780820380516001836020036101000a031916815260200191505b50858103845288818151815260200191508051906020019080838360005b8381101561087b578082015181840152602081019050610860565b50505050905090810190601f1680156108a85780820380516001836020036101000a031916815260200191505b50858103835287818151815260200191508051906020019080838360005b838110156108e15780820151818401526020810190506108c6565b50505050905090810190601f16801561090e5780820380516001836020036101000a031916815260200191505b50858103825286818151815260200191508051906020019080838360005b8381101561094757808201518184015260208101905061092c565b50505050905090810190601f1680156109745780820380516001836020036101000a031916815260200191505b509850505050505050505060405180910390f35b34801561099457600080fd5b5061099d611865565b604051808273ffffffffffffffffffffffffffffffffffffffff1673ffffffffffffffffffffffffffffffffffffffff16815260200191505060405180910390f35b3480156109eb57600080fd5b506109f461188e565b604051808215151515815260200191505060405180910390f35b348015610a1a57600080fd5b50610a236118e5565b6040518082815260200191505060405180910390f35b348015610a4557600080fd5b50610cce600480360360a0811015610a5c57600080fd5b810190808035906020019092919080359060200190640100000000811115610a8357600080fd5b820183602082011115610a9557600080fd5b80359060200191846001830284011164010000000083111715610ab757600080fd5b91908080601f016020809104026020016040519081016040528093929190818152602001838380828437600081840152601f19601f82011690508083019250505050505050919291929080359060200190640100000000811115610b1a57600080fd5b820183602082011115610b2c57600080fd5b80359060200191846001830284011164010000000083111715610b4e57600080fd5b91908080601f016020809104026020016040519081016040528093929190818152602001838380828437600081840152601f19601f82011690508083019250505050505050919291929080359060200190640100000000811115610bb157600080fd5b820183602082011115610bc357600080fd5b80359060200191846001830284011164010000000083111715610be557600080fd5b91908080601f016020809104026020016040519081016040528093929190818152602001838380828437600081840152601f19601f82011690508083019250505050505050919291929080359060200190640100000000811115610c4857600080fd5b820183602082011115610c5a57600080fd5b80359060200191846001830284011164010000000083111715610c7c57600080fd5b91908080601f016020809104026020016040519081016040528093929190818152602001838380828437600081840152601f19601f8201169050808301925050505050505091929192905050506118f2565b005b348015610cdc57600080fd5b50610d1f60048036036020811015610cf357600080fd5b81019080803573ffffffffffffffffffffffffffffffffffffffff169060200190929190505050611c96565b005b6000803073ffffffffffffffffffffffffffffffffffffffff1663916cec766040518163ffffffff167c010000000000000000000000000000000000000000000000000000000002815260040160206040518083038186803b158015610d8657600080fd5b505afa158015610d9a573d6000803e3d6000fd5b505050506040513d6020811015610db057600080fd5b810190808051906020019092919050505090506000811115610dd6578080600190039150505b8091505090565b6000816040516020018082805190602001908083835b602083101515610e185780518252602082019150602081019050602083039250610df3565b6001836020036101000a038019825116818451168082178552505050505050905001915050604051602081830303815290604052805190602001206001846040518082805190602001908083835b602083101515610e8b5780518252602082019150602081019050602083039250610e66565b6001836020036101000a03801982511681845116808217855250505050505090500191505090815260200160405180910390206001016040516020018082805460018160011615610100020316600290048015610f1f5780601f10610efd576101008083540402835291820191610f1f565b820191906000526020600020905b815481529060010190602001808311610f0b575b50509150506040516020818303038152906040528051906020012014905092915050565b6060806060806000600386815481101515610f5a57fe5b90600052602060002001549050610f6f611daf565b6002600083815260200190815260200160002060a060405190810160405290816000820160009054906101000a900460ff16151515158152602001600182018054600181600116156101000203166002900480601f0160208091040260200160405190810160405280929190818152602001828054600181600116156101000203166002900480156110425780601f1061101757610100808354040283529160200191611042565b820191906000526020600020905b81548152906001019060200180831161102557829003601f168201915b50505050508152602001600282018054600181600116156101000203166002900480601f0160208091040260200160405190810160405280929190818152602001828054600181600116156101000203166002900480156110e45780601f106110b9576101008083540402835291602001916110e4565b820191906000526020600020905b8154815290600101906020018083116110c757829003601f168201915b50505050508152602001600382018054600181600116156101000203166002900480601f0160208091040260200160405190810160405280929190818152602001828054600181600116156101000203166002900480156111865780601f1061115b57610100808354040283529160200191611186565b820191906000526020600020905b81548152906001019060200180831161116957829003601f168201915b50505050508152602001600482018054600181600116156101000203166002900480601f0160208091040260200160405190810160405280929190818152602001828054600181600116156101000203166002900480156112285780601f106111fd57610100808354040283529160200191611228565b820191906000526020600020905b81548152906001019060200180831161120b57829003601f168201915b5050505050815250509050806040015194508060600151935080602001519550806080015192505091939590929450565b61126161188e565b151561126c57600080fd5b6001856040518082805190602001908083835b6020831015156112a4578051825260208201915060208101905060208303925061127f565b6001836020036101000a038019825116818451168082178552505050505050905001915050908152602001604051809103902060000160009054906101000a900460ff1615151561135d576040517f08c379a00000000000000000000000000000000000000000000000000000000081526004018080602001828103825260138152602001807f5573657220616c7265616479206578697374730000000000000000000000000081525060200191505060405180910390fd5b611365611de1565b60a060405190810160405280600115158152602001838152602001868152602001858152602001848152509050806001876040518082805190602001908083835b6020831015156113cb57805182526020820191506020810190506020830392506113a6565b6001836020036101000a038019825116818451168082178552505050505050905001915050908152602001604051809103902060008201518160000160006101000a81548160ff021916908315150217905550602082015181600101908051906020019061143a929190611e13565b506040820151816002019080519060200190611457929190611e13565b506060820151816003019080519060200190611474929190611e13565b506080820151816004019080519060200190611491929190611e13565b50905050505050505050565b6114a561188e565b15156114b057600080fd5b600073ffffffffffffffffffffffffffffffffffffffff166000809054906101000a900473ffffffffffffffffffffffffffffffffffffffff1673ffffffffffffffffffffffffffffffffffffffff167f8be0079c531659141344cd1fd0a4f28419497f9722a3daafe3b4186f6b6457e060405160405180910390a360008060006101000a81548173ffffffffffffffffffffffffffffffffffffffff021916908373ffffffffffffffffffffffffffffffffffffffff160217905550565b60608060608061157d611daf565b6002600087815260200190815260200160002060a060405190810160405290816000820160009054906101000a900460ff16151515158152602001600182018054600181600116156101000203166002900480601f0160208091040260200160405190810160405280929190818152602001828054600181600116156101000203166002900480156116505780601f1061162557610100808354040283529160200191611650565b820191906000526020600020905b81548152906001019060200180831161163357829003601f168201915b50505050508152602001600282018054600181600116156101000203166002900480601f0160208091040260200160405190810160405280929190818152602001828054600181600116156101000203166002900480156116f25780601f106116c7576101008083540402835291602001916116f2565b820191906000526020600020905b8154815290600101906020018083116116d557829003601f168201915b50505050508152602001600382018054600181600116156101000203166002900480601f0160208091040260200160405190810160405280929190818152602001828054600181600116156101000203166002900480156117945780601f1061176957610100808354040283529160200191611794565b820191906000526020600020905b81548152906001019060200180831161177757829003601f168201915b50505050508152602001600482018054600181600116156101000203166002900480601f0160208091040260200160405190810160405280929190818152602001828054600181600116156101000203166002900480156118365780601f1061180b57610100808354040283529160200191611836565b820191906000526020600020905b81548152906001019060200180831161181957829003601f168201915b505050505081525050905080602001519450806040015193508060600151925080608001519150509193509193565b60008060009054906101000a900473ffffffffffffffffffffffffffffffffffffffff16905090565b60008060009054906101000a900473ffffffffffffffffffffffffffffffffffffffff1673ffffffffffffffffffffffffffffffffffffffff163373ffffffffffffffffffffffffffffffffffffffff1614905090565b6000600380549050905090565b6118fa61188e565b151561190557600080fd5b806001816040518082805190602001908083835b60208310151561193e5780518252602082019150602081019050602083039250611919565b6001836020036101000a038019825116818451168082178552505050505050905001915050908152602001604051809103902060000160009054906101000a900460ff1615156119f6576040517f08c379a00000000000000000000000000000000000000000000000000000000081526004018080602001828103825260138152602001807f55736572206e6f7420726567697374657265640000000000000000000000000081525060200191505060405180910390fd5b6002600087815260200190815260200160002060000160009054906101000a900460ff16151515611a8f576040517f08c379a000000000000000000000000000000000000000000000000000000000815260040180806020018281038252601d8152602001807f5468697320706170657220697320616c7265616479206c6f646164656400000081525060200191505060405180910390fd5b611a97611daf565b60a0604051908101604052806001151581526020018781526020018681526020018581526020018481525090506003879080600181540180825580915050906001820390600052602060002001600090919290919091505550806002600089815260200190815260200160002060008201518160000160006101000a81548160ff0219169083151502179055506020820151816001019080519060200190611b40929190611e13565b506040820151816002019080519060200190611b5d929190611e13565b506060820151816003019080519060200190611b7a929190611e13565b506080820151816004019080519060200190611b97929190611e13565b50905050836040518082805190602001908083835b602083101515611bd15780518252602082019150602081019050602083039250611bac565b6001836020036101000a0380198251168184511680821785525050505050509050019150506040518091039020856040518082805190602001908083835b602083101515611c345780518252602082019150602081019050602083039250611c0f565b6001836020036101000a03801982511681845116808217855250505050505090500191505060405180910390207f25e62903523bb2d8b5ac0a57d502eacf7ffdec19a7a0dd0ce796fcacbfef54a260405160405180910390a350505050505050565b611c9e61188e565b1515611ca957600080fd5b611cb281611cb5565b50565b600073ffffffffffffffffffffffffffffffffffffffff168173ffffffffffffffffffffffffffffffffffffffff1614151515611cf157600080fd5b8073ffffffffffffffffffffffffffffffffffffffff166000809054906101000a900473ffffffffffffffffffffffffffffffffffffffff1673ffffffffffffffffffffffffffffffffffffffff167f8be0079c531659141344cd1fd0a4f28419497f9722a3daafe3b4186f6b6457e060405160405180910390a3806000806101000a81548173ffffffffffffffffffffffffffffffffffffffff021916908373ffffffffffffffffffffffffffffffffffffffff16021790555050565b60a060405190810160405280600015158152602001606081526020016060815260200160608152602001606081525090565b60a060405190810160405280600015158152602001606081526020016060815260200160608152602001606081525090565b828054600181600116156101000203166002900490600052602060002090601f016020900481019282601f10611e5457805160ff1916838001178555611e82565b82800160010185558215611e82579182015b82811115611e81578251825591602001919060010190611e66565b5b509050611e8f9190611e93565b5090565b611eb591905b80821115611eb1576000816000905550600101611e99565b5090565b9056fea165627a7a723058204b9d0989e8ea4536c73f1d4f53ce797b26e4ab0119d39c082404445500edc0af0029",
  "source": "pragma solidity >=0.4.21 <0.6.0;\n\nimport \"./Ownable.sol\";\nimport \"./UserManagement.sol\";\n\ncontract PaperManagement is Ownable, UserManagement{\n\n    struct infoPaper{\n        bool exists;\n        string issue;\n        string authors;\n        string title;\n        string username;\n    }\n\n    mapping(bytes32 => infoPaper) paperByContent;\n    //The paper ID will be the position of its content in the below array.\n    bytes32[] contentList;\n\n    event PaperStored(string indexed _authors, string indexed _title);\n\n    function storePaper(bytes32 _paperContent,\n                        string memory _issue,\n                        string memory _authors,\n                        string memory _title,\n                        string memory _username) public\n                        onlyOwner\n                        registeredUser(_username) {\n        require(!paperByContent[_paperContent].exists, \"This paper is already lodaded\");\n        infoPaper memory newPaper = infoPaper(true,\n                                              _issue,\n                                              _authors,\n                                              _title,\n                                              _username);\n        contentList.push(_paperContent);\n        paperByContent[_paperContent] = newPaper;\n        emit PaperStored(_authors, _title);\n    }\n\n    function getPaperById(uint _idPaper) public view returns(\n        string memory issue,\n        string memory authors,\n        string memory title,\n        string memory username,\n        bytes32 content\n    ){\n        content = contentList[_idPaper];\n        infoPaper memory paper = paperByContent[content];\n        authors = paper.authors;\n        title = paper.title;\n        issue = paper.issue;\n        username = paper.username;\n    }\n\n    function getPaperByContent(bytes32 _content) public view returns(\n        string memory issue,\n        string memory authors,\n        string memory title,\n        string memory username\n    ){\n        infoPaper memory paper = paperByContent[_content];\n        issue = paper.issue;\n        authors = paper.authors;\n        title = paper.title;\n        username = paper.username;\n    }\n\n    function papersCount() public view returns (uint){\n        return contentList.length;\n    }\n\n    function getLastID() public view returns(uint){\n        uint count = this.papersCount();\n        if(count > 0) count--;\n        return count;\n    }\n\n}\n",
  "sourcePath": "/home/voolkia/Documentos/Proyectos/blockchain/Contract/contracts/PaperManagement.sol",
  "compiler": {
    "name": "solc",
    "version": "0.5.0+commit.1d4f565a.Emscripten.clang"
  },
  "schemaVersion": "3.0.1",
  "updatedAt": "2019-06-05T20:33:45.761Z",
  "devdoc": {
    "methods": {
      "isOwner()": {
        "return": "true if `msg.sender` is the owner of the contract."
      },
      "owner()": {
        "return": "the address of the owner."
      },
      "renounceOwnership()": {
        "details": "Allows the current owner to relinquish control of the contract."
      },
      "transferOwnership(address)": {
        "details": "Allows the current owner to transfer control of the contract to a newOwner.",
        "params": {
          "newOwner": "The address to transfer ownership to."
        }
      }
    }
  },
  "userdoc": {
    "methods": {
      "renounceOwnership()": {
        "notice": "Renouncing to ownership will leave the contract without an owner. It will not be possible to call the functions with the `onlyOwner` modifier anymore."
      }
    }
  }
}